{
  "_format": "hh-sol-artifact-1",
  "contractName": "Vote",
  "sourceName": "contracts/Vote.sol",
  "abi": [
    {
      "inputs": [],
      "stateMutability": "nonpayable",
      "type": "constructor"
    },
    {
      "inputs": [],
      "name": "getCandidates",
      "outputs": [
        {
          "components": [
            {
              "internalType": "uint16",
              "name": "id",
              "type": "uint16"
            },
            {
              "internalType": "string",
              "name": "name",
              "type": "string"
            },
            {
              "internalType": "int16",
              "name": "votes",
              "type": "int16"
            }
          ],
          "internalType": "struct Vote.Candidate[]",
          "name": "",
          "type": "tuple[]"
        }
      ],
      "stateMutability": "view",
      "type": "function"
    },
    {
      "inputs": [],
      "name": "memberCount",
      "outputs": [
        {
          "internalType": "uint256",
          "name": "",
          "type": "uint256"
        }
      ],
      "stateMutability": "view",
      "type": "function"
    },
    {
      "inputs": [],
      "name": "seed",
      "outputs": [],
      "stateMutability": "nonpayable",
      "type": "function"
    },
    {
      "inputs": [
        {
          "internalType": "uint16",
          "name": "id",
          "type": "uint16"
        }
      ],
      "name": "vote",
      "outputs": [
        {
          "components": [
            {
              "internalType": "uint16",
              "name": "id",
              "type": "uint16"
            },
            {
              "internalType": "string",
              "name": "name",
              "type": "string"
            },
            {
              "internalType": "int16",
              "name": "votes",
              "type": "int16"
            }
          ],
          "internalType": "struct Vote.Candidate",
          "name": "",
          "type": "tuple"
        }
      ],
      "stateMutability": "nonpayable",
      "type": "function"
    }
  ],
  "bytecode": "0x60806040523480156200001157600080fd5b50620000226200002860201b60201c565b62000770565b60006003905060005b818161ffff161162000178576000620000598261ffff166200017c60201b6200054a1760201c565b905060008060006001856200006f91906200049a565b61ffff16815260200190815260200160002090506001836200009291906200049a565b8160000160006101000a81548161ffff021916908361ffff1602179055506040518060400160405280601081526020017f52616e646f6d2043616e6469646174650000000000000000000000000000000081525082604051602001620000fa9291906200044b565b604051602081830303815290604052816001019080519060200190620001229291906200033e565b5060008160020160006101000a81548161ffff021916908360010b61ffff160217905550600160008154809291906200015b906200065d565b9190505550505080806200016f906200062d565b91505062000031565b5050565b60606000821415620001c6576040518060400160405280600181526020017f3000000000000000000000000000000000000000000000000000000000000000815250905062000339565b600082905060005b60008214620001fe578080620001e4906200065d565b915050600a82620001f6919062000536565b9150620001ce565b60008167ffffffffffffffff81111562000241577f4e487b7100000000000000000000000000000000000000000000000000000000600052604160045260246000fd5b6040519080825280601f01601f191660200182016040528015620002745781602001600182028036833780820191505090505b5090505b6000851462000332576001826200029091906200056e565b9150600a85620002a19190620006ab565b6030620002af9190620004d9565b60f81b818381518110620002ec577f4e487b7100000000000000000000000000000000000000000000000000000000600052603260045260246000fd5b60200101907effffffffffffffffffffffffffffffffffffffffffffffffffffffffffffff1916908160001a905350600a856200032a919062000536565b945062000278565b8093505050505b919050565b8280546200034c90620005f7565b90600052602060002090601f016020900481019282620003705760008555620003bc565b82601f106200038b57805160ff1916838001178555620003bc565b82800160010185558215620003bc579182015b82811115620003bb5782518255916020019190600101906200039e565b5b509050620003cb9190620003cf565b5090565b5b80821115620003ea576000816000905550600101620003d0565b5090565b6000620003fb8262000484565b6200040781856200048f565b935062000419818560208601620005c1565b80840191505092915050565b7f2000000000000000000000000000000000000000000000000000000000000000815250565b6000620004598285620003ee565b9150620004668262000425565b600182019150620004788284620003ee565b91508190509392505050565b600081519050919050565b600081905092915050565b6000620004a782620005a9565b9150620004b483620005a9565b92508261ffff03821115620004ce57620004cd620006e3565b5b828201905092915050565b6000620004e682620005b7565b9150620004f383620005b7565b9250827fffffffffffffffffffffffffffffffffffffffffffffffffffffffffffffffff038211156200052b576200052a620006e3565b5b828201905092915050565b60006200054382620005b7565b91506200055083620005b7565b92508262000563576200056262000712565b5b828204905092915050565b60006200057b82620005b7565b91506200058883620005b7565b9250828210156200059e576200059d620006e3565b5b828203905092915050565b600061ffff82169050919050565b6000819050919050565b60005b83811015620005e1578082015181840152602081019050620005c4565b83811115620005f1576000848401525b50505050565b600060028204905060018216806200061057607f821691505b6020821081141562000627576200062662000741565b5b50919050565b60006200063a82620005a9565b915061ffff821415620006525762000651620006e3565b5b600182019050919050565b60006200066a82620005b7565b91507fffffffffffffffffffffffffffffffffffffffffffffffffffffffffffffffff821415620006a0576200069f620006e3565b5b600182019050919050565b6000620006b882620005b7565b9150620006c583620005b7565b925082620006d857620006d762000712565b5b828206905092915050565b7f4e487b7100000000000000000000000000000000000000000000000000000000600052601160045260246000fd5b7f4e487b7100000000000000000000000000000000000000000000000000000000600052601260045260246000fd5b7f4e487b7100000000000000000000000000000000000000000000000000000000600052602260045260246000fd5b610e1b80620007806000396000f3fe608060405234801561001057600080fd5b506004361061004c5760003560e01c806306a49fce1461005157806311aee3801461006f5780637d94792a1461008d578063ddb6e11614610097575b600080fd5b6100596100c7565b6040516100669190610a19565b60405180910390f35b6100776102a7565b6040516100849190610a5d565b60405180910390f35b6100956102ad565b005b6100b160048036038101906100ac91906107d7565b6103e6565b6040516100be9190610a3b565b60405180910390f35b6060600060015467ffffffffffffffff81111561010d577f4e487b7100000000000000000000000000000000000000000000000000000000600052604160045260246000fd5b60405190808252806020026020018201604052801561014657816020015b6101336106f7565b81526020019060019003908161012b5790505b50905060005b60015481101561029f5760008060008381526020019081526020016000209050806040518060600160405290816000820160009054906101000a900461ffff1661ffff1661ffff1681526020016001820180546101a890610c2e565b80601f01602080910402602001604051908101604052809291908181526020018280546101d490610c2e565b80156102215780601f106101f657610100808354040283529160200191610221565b820191906000526020600020905b81548152906001019060200180831161020457829003601f168201915b505050505081526020016002820160009054906101000a900460010b60010b60010b81525050838381518110610280577f4e487b7100000000000000000000000000000000000000000000000000000000600052603260045260246000fd5b602002602001018190525050808061029790610cb6565b91505061014c565b508091505090565b60015481565b60006003905060005b818161ffff16116103e25760006102d08261ffff1661054a565b905060008060006001856102e49190610ae3565b61ffff16815260200190815260200160002090506001836103059190610ae3565b8160000160006101000a81548161ffff021916908361ffff1602179055506040518060400160405280601081526020017f52616e646f6d2043616e646964617465000000000000000000000000000000008152508260405160200161036b9291906109e6565b60405160208183030381529060405281600101908051906020019061039192919061071f565b5060008160020160006101000a81548161ffff021916908360010b61ffff160217905550600160008154809291906103c890610cb6565b9190505550505080806103da90610c8b565b9150506102b6565b5050565b6103ee6106f7565b60008060008461ffff168152602001908152602001600020905060008160000160009054906101000a900461ffff1661ffff1611156104675780600201600081819054906101000a900460010b8092919061044890610c60565b91906101000a81548161ffff021916908360010b61ffff160217905550505b806040518060600160405290816000820160009054906101000a900461ffff1661ffff1661ffff1681526020016001820180546104a390610c2e565b80601f01602080910402602001604051908101604052809291908181526020018280546104cf90610c2e565b801561051c5780601f106104f15761010080835404028352916020019161051c565b820191906000526020600020905b8154815290600101906020018083116104ff57829003601f168201915b505050505081526020016002820160009054906101000a900460010b60010b60010b81525050915050919050565b60606000821415610592576040518060400160405280600181526020017f300000000000000000000000000000000000000000000000000000000000000081525090506106f2565b600082905060005b600082146105c45780806105ad90610cb6565b915050600a826105bd9190610b71565b915061059a565b60008167ffffffffffffffff811115610606577f4e487b7100000000000000000000000000000000000000000000000000000000600052604160045260246000fd5b6040519080825280601f01601f1916602001820160405280156106385781602001600182028036833780820191505090505b5090505b600085146106eb576001826106519190610ba2565b9150600a856106609190610cff565b603061066c9190610b1b565b60f81b8183815181106106a8577f4e487b7100000000000000000000000000000000000000000000000000000000600052603260045260246000fd5b60200101907effffffffffffffffffffffffffffffffffffffffffffffffffffffffffffff1916908160001a905350600a856106e49190610b71565b945061063c565b8093505050505b919050565b6040518060600160405280600061ffff16815260200160608152602001600060010b81525090565b82805461072b90610c2e565b90600052602060002090601f01602090048101928261074d5760008555610794565b82601f1061076657805160ff1916838001178555610794565b82800160010185558215610794579182015b82811115610793578251825591602001919060010190610778565b5b5090506107a191906107a5565b5090565b5b808211156107be5760008160009055506001016107a6565b5090565b6000813590506107d181610dce565b92915050565b6000602082840312156107e957600080fd5b60006107f7848285016107c2565b91505092915050565b600061080c8383610928565b905092915050565b600061081f82610a88565b6108298185610ab6565b93508360208202850161083b85610a78565b8060005b8581101561087757848403895281516108588582610800565b945061086383610aa9565b925060208a0199505060018101905061083f565b50829750879550505050505092915050565b600061089482610a93565b61089e8185610ac7565b93506108ae818560208601610bfb565b80840191505092915050565b6108c381610bd6565b82525050565b60006108d482610a9e565b6108de8185610ad2565b93506108ee818560208601610bfb565b6108f781610dbd565b840191505092915050565b7f2000000000000000000000000000000000000000000000000000000000000000815250565b600060608301600083015161094060008601826109c8565b506020830151848203602086015261095882826108c9565b915050604083015161096d60408601826108ba565b508091505092915050565b600060608301600083015161099060008601826109c8565b50602083015184820360208601526109a882826108c9565b91505060408301516109bd60408601826108ba565b508091505092915050565b6109d181610be3565b82525050565b6109e081610bf1565b82525050565b60006109f28285610889565b91506109fd82610902565b600182019150610a0d8284610889565b91508190509392505050565b60006020820190508181036000830152610a338184610814565b905092915050565b60006020820190508181036000830152610a558184610978565b905092915050565b6000602082019050610a7260008301846109d7565b92915050565b6000819050602082019050919050565b600081519050919050565b600081519050919050565b600081519050919050565b6000602082019050919050565b600082825260208201905092915050565b600081905092915050565b600082825260208201905092915050565b6000610aee82610be3565b9150610af983610be3565b92508261ffff03821115610b1057610b0f610d30565b5b828201905092915050565b6000610b2682610bf1565b9150610b3183610bf1565b9250827fffffffffffffffffffffffffffffffffffffffffffffffffffffffffffffffff03821115610b6657610b65610d30565b5b828201905092915050565b6000610b7c82610bf1565b9150610b8783610bf1565b925082610b9757610b96610d5f565b5b828204905092915050565b6000610bad82610bf1565b9150610bb883610bf1565b925082821015610bcb57610bca610d30565b5b828203905092915050565b60008160010b9050919050565b600061ffff82169050919050565b6000819050919050565b60005b83811015610c19578082015181840152602081019050610bfe565b83811115610c28576000848401525b50505050565b60006002820490506001821680610c4657607f821691505b60208210811415610c5a57610c59610d8e565b5b50919050565b6000610c6b82610bd6565b9150617fff821415610c8057610c7f610d30565b5b600182019050919050565b6000610c9682610be3565b915061ffff821415610cab57610caa610d30565b5b600182019050919050565b6000610cc182610bf1565b91507fffffffffffffffffffffffffffffffffffffffffffffffffffffffffffffffff821415610cf457610cf3610d30565b5b600182019050919050565b6000610d0a82610bf1565b9150610d1583610bf1565b925082610d2557610d24610d5f565b5b828206905092915050565b7f4e487b7100000000000000000000000000000000000000000000000000000000600052601160045260246000fd5b7f4e487b7100000000000000000000000000000000000000000000000000000000600052601260045260246000fd5b7f4e487b7100000000000000000000000000000000000000000000000000000000600052602260045260246000fd5b6000601f19601f8301169050919050565b610dd781610be3565b8114610de257600080fd5b5056fea2646970667358221220a81751074a056b1ccebb1421b580be43274255faacc27566d63fa65a11b1bbad64736f6c63430008040033",
  "linkReferences": {},
  "deployedLinkReferences": {}
}